{
  "contractName": "Dex",
  "abi": [
    {
      "inputs": [],
      "stateMutability": "nonpayable",
      "type": "constructor"
    },
    {
      "anonymous": false,
      "inputs": [
        {
          "indexed": false,
          "internalType": "uint256",
          "name": "tradeId",
          "type": "uint256"
        },
        {
          "indexed": false,
          "internalType": "uint256",
          "name": "orderId",
          "type": "uint256"
        },
        {
          "indexed": true,
          "internalType": "bytes32",
          "name": "ticker",
          "type": "bytes32"
        },
        {
          "indexed": true,
          "internalType": "address",
          "name": "trader1",
          "type": "address"
        },
        {
          "indexed": true,
          "internalType": "address",
          "name": "trader2",
          "type": "address"
        },
        {
          "indexed": false,
          "internalType": "uint256",
          "name": "amount",
          "type": "uint256"
        },
        {
          "indexed": false,
          "internalType": "uint256",
          "name": "price",
          "type": "uint256"
        },
        {
          "indexed": false,
          "internalType": "uint256",
          "name": "date",
          "type": "uint256"
        }
      ],
      "name": "NewTrade",
      "type": "event"
    },
    {
      "inputs": [],
      "name": "admin",
      "outputs": [
        {
          "internalType": "address",
          "name": "",
          "type": "address"
        }
      ],
      "stateMutability": "view",
      "type": "function",
      "constant": true
    },
    {
      "inputs": [],
      "name": "nextOrderId",
      "outputs": [
        {
          "internalType": "uint256",
          "name": "",
          "type": "uint256"
        }
      ],
      "stateMutability": "view",
      "type": "function",
      "constant": true
    },
    {
      "inputs": [],
      "name": "nextTradeId",
      "outputs": [
        {
          "internalType": "uint256",
          "name": "",
          "type": "uint256"
        }
      ],
      "stateMutability": "view",
      "type": "function",
      "constant": true
    },
    {
      "inputs": [
        {
          "internalType": "bytes32",
          "name": "",
          "type": "bytes32"
        },
        {
          "internalType": "uint256",
          "name": "",
          "type": "uint256"
        },
        {
          "internalType": "uint256",
          "name": "",
          "type": "uint256"
        }
      ],
      "name": "orderBook",
      "outputs": [
        {
          "internalType": "uint256",
          "name": "id",
          "type": "uint256"
        },
        {
          "internalType": "address",
          "name": "trader",
          "type": "address"
        },
        {
          "internalType": "enum Dex.Side",
          "name": "side",
          "type": "uint8"
        },
        {
          "internalType": "bytes32",
          "name": "ticker",
          "type": "bytes32"
        },
        {
          "internalType": "uint256",
          "name": "amount",
          "type": "uint256"
        },
        {
          "internalType": "uint256",
          "name": "filled",
          "type": "uint256"
        },
        {
          "internalType": "uint256",
          "name": "price",
          "type": "uint256"
        },
        {
          "internalType": "uint256",
          "name": "date",
          "type": "uint256"
        }
      ],
      "stateMutability": "view",
      "type": "function",
      "constant": true
    },
    {
      "inputs": [
        {
          "internalType": "uint256",
          "name": "",
          "type": "uint256"
        }
      ],
      "name": "tokenList",
      "outputs": [
        {
          "internalType": "bytes32",
          "name": "",
          "type": "bytes32"
        }
      ],
      "stateMutability": "view",
      "type": "function",
      "constant": true
    },
    {
      "inputs": [
        {
          "internalType": "bytes32",
          "name": "",
          "type": "bytes32"
        }
      ],
      "name": "tokens",
      "outputs": [
        {
          "internalType": "bytes32",
          "name": "ticker",
          "type": "bytes32"
        },
        {
          "internalType": "address",
          "name": "tokenAddress",
          "type": "address"
        }
      ],
      "stateMutability": "view",
      "type": "function",
      "constant": true
    },
    {
      "inputs": [
        {
          "internalType": "address",
          "name": "",
          "type": "address"
        },
        {
          "internalType": "bytes32",
          "name": "",
          "type": "bytes32"
        }
      ],
      "name": "traderBalances",
      "outputs": [
        {
          "internalType": "uint256",
          "name": "",
          "type": "uint256"
        }
      ],
      "stateMutability": "view",
      "type": "function",
      "constant": true
    },
    {
      "inputs": [
        {
          "internalType": "bytes32",
          "name": "ticker",
          "type": "bytes32"
        },
        {
          "internalType": "enum Dex.Side",
          "name": "side",
          "type": "uint8"
        }
      ],
      "name": "getOrders",
      "outputs": [
        {
          "components": [
            {
              "internalType": "uint256",
              "name": "id",
              "type": "uint256"
            },
            {
              "internalType": "address",
              "name": "trader",
              "type": "address"
            },
            {
              "internalType": "enum Dex.Side",
              "name": "side",
              "type": "uint8"
            },
            {
              "internalType": "bytes32",
              "name": "ticker",
              "type": "bytes32"
            },
            {
              "internalType": "uint256",
              "name": "amount",
              "type": "uint256"
            },
            {
              "internalType": "uint256",
              "name": "filled",
              "type": "uint256"
            },
            {
              "internalType": "uint256",
              "name": "price",
              "type": "uint256"
            },
            {
              "internalType": "uint256",
              "name": "date",
              "type": "uint256"
            }
          ],
          "internalType": "struct Dex.Order[]",
          "name": "",
          "type": "tuple[]"
        }
      ],
      "stateMutability": "view",
      "type": "function",
      "constant": true
    },
    {
      "inputs": [],
      "name": "getTokens",
      "outputs": [
        {
          "components": [
            {
              "internalType": "bytes32",
              "name": "ticker",
              "type": "bytes32"
            },
            {
              "internalType": "address",
              "name": "tokenAddress",
              "type": "address"
            }
          ],
          "internalType": "struct Dex.Token[]",
          "name": "",
          "type": "tuple[]"
        }
      ],
      "stateMutability": "view",
      "type": "function",
      "constant": true
    },
    {
      "inputs": [
        {
          "internalType": "bytes32",
          "name": "ticker",
          "type": "bytes32"
        },
        {
          "internalType": "address",
          "name": "tokenAddress",
          "type": "address"
        }
      ],
      "name": "addToken",
      "outputs": [],
      "stateMutability": "nonpayable",
      "type": "function"
    },
    {
      "inputs": [
        {
          "internalType": "uint256",
          "name": "amount",
          "type": "uint256"
        },
        {
          "internalType": "bytes32",
          "name": "ticker",
          "type": "bytes32"
        }
      ],
      "name": "deposit",
      "outputs": [],
      "stateMutability": "nonpayable",
      "type": "function"
    },
    {
      "inputs": [
        {
          "internalType": "uint256",
          "name": "amount",
          "type": "uint256"
        },
        {
          "internalType": "bytes32",
          "name": "ticker",
          "type": "bytes32"
        }
      ],
      "name": "withdraw",
      "outputs": [],
      "stateMutability": "nonpayable",
      "type": "function"
    },
    {
      "inputs": [
        {
          "internalType": "bytes32",
          "name": "ticker",
          "type": "bytes32"
        },
        {
          "internalType": "uint256",
          "name": "amount",
          "type": "uint256"
        },
        {
          "internalType": "uint256",
          "name": "price",
          "type": "uint256"
        },
        {
          "internalType": "enum Dex.Side",
          "name": "side",
          "type": "uint8"
        }
      ],
      "name": "createLimitOrder",
      "outputs": [],
      "stateMutability": "nonpayable",
      "type": "function"
    },
    {
      "inputs": [
        {
          "internalType": "bytes32",
          "name": "ticker",
          "type": "bytes32"
        },
        {
          "internalType": "uint256",
          "name": "amount",
          "type": "uint256"
        },
        {
          "internalType": "enum Dex.Side",
          "name": "side",
          "type": "uint8"
        }
      ],
      "name": "createMarketOrder",
      "outputs": [],
      "stateMutability": "nonpayable",
      "type": "function"
    },
    {
      "inputs": [
        {
          "internalType": "bytes32",
          "name": "_ticker",
          "type": "bytes32"
        },
        {
          "internalType": "enum Dex.Side",
          "name": "_side",
          "type": "uint8"
        },
        {
          "internalType": "uint256",
          "name": "_id",
          "type": "uint256"
        }
      ],
      "name": "deleteOrder",
      "outputs": [],
      "stateMutability": "nonpayable",
      "type": "function"
    }
  ],
  "bytecode": "0x608060405234801561001057600080fd5b5033600460006101000a81548173ffffffffffffffffffffffffffffffffffffffff021916908373ffffffffffffffffffffffffffffffffffffffff160217905550613752806100616000396000f3fe608060405234801561001057600080fd5b50600436106100f55760003560e01c8063904194a311610097578063aa6ca80811610066578063aa6ca8081461029e578063c9630cb0146102bc578063d9c0c950146102d8578063f851a440146102f4576100f5565b8063904194a3146102055780639776aacf146102365780639ead722214610252578063a8d2021a14610282576100f5565b806346e9658b116100d357806346e9658b1461016b57806372ce957e1461019b5780637f2c6246146101cb578063813ad083146101e7576100f5565b80630bb431b6146100fa5780632a58b3301461013157806343c690e71461014f575b600080fd5b610114600480360381019061010f919061296f565b610312565b604051610128989796959493929190612a98565b60405180910390f35b6101396103b1565b6040516101469190612b16565b60405180910390f35b61016960048036038101906101649190612b56565b6103b7565b005b61018560048036038101906101809190612ba9565b6106f1565b6040516101929190612d77565b60405180910390f35b6101b560048036038101906101b09190612dc5565b610855565b6040516101c29190612b16565b60405180910390f35b6101e560048036038101906101e09190612e05565b61087a565b005b6101ef611477565b6040516101fc9190612b16565b60405180910390f35b61021f600480360381019061021a9190612e58565b61147d565b60405161022d929190612e85565b60405180910390f35b610250600480360381019061024b9190612eae565b6114c1565b005b61026c60048036038101906102679190612eee565b61160f565b6040516102799190612f1b565b60405180910390f35b61029c60048036038101906102979190612f36565b611633565b005b6102a661188c565b6040516102b39190613054565b60405180910390f35b6102d660048036038101906102d19190612f36565b6119e5565b005b6102f260048036038101906102ed9190613076565b611bad565b005b6102fc612599565b60405161030991906130dd565b60405180910390f35b6003602052826000526040600020602052816000526040600020818154811061033a57600080fd5b906000526020600020906007020160009250925050508060000154908060010160009054906101000a900473ffffffffffffffffffffffffffffffffffffffff16908060010160149054906101000a900460ff16908060020154908060030154908060040154908060050154908060060154905088565b60055481565b60006003600085815260200190815260200160002060008460018111156103e1576103e0612a12565b5b8152602001908152602001600020905060005b81805490508110156106ea5782828281548110610414576104136130f8565b5b9060005260206000209060070201600001541480156104a257503373ffffffffffffffffffffffffffffffffffffffff16828281548110610458576104576130f8565b5b906000526020600020906007020160010160009054906101000a900473ffffffffffffffffffffffffffffffffffffffff1673ffffffffffffffffffffffffffffffffffffffff16145b156106d757600060018111156104bb576104ba612a12565b5b8282815481106104ce576104cd6130f8565b5b906000526020600020906007020160010160149054906101000a900460ff1660018111156104ff576104fe612a12565b5b14156105f1576103e882828154811061051b5761051a6130f8565b5b9060005260206000209060070201600501548383815481106105405761053f6130f8565b5b90600052602060002090600702016003015461055c9190613156565b61056691906131df565b600260003373ffffffffffffffffffffffffffffffffffffffff1673ffffffffffffffffffffffffffffffffffffffff16815260200190815260200160002060007f5553444300000000000000000000000000000000000000000000000000000000815260200190815260200160002060008282546105e59190613210565b9250508190555061067d565b818181548110610604576106036130f8565b5b906000526020600020906007020160030154600260003373ffffffffffffffffffffffffffffffffffffffff1673ffffffffffffffffffffffffffffffffffffffff168152602001908152602001600020600087815260200190815260200160002060008282546106759190613210565b925050819055505b6000828281548110610692576106916130f8565b5b9060005260206000209060070201600301819055506106d68282815481106106bd576106bc6130f8565b5b90600052602060002090600702016002015485836125bf565b5b80806106e290613266565b9150506103f4565b5050505050565b606060036000848152602001908152602001600020600083600181111561071b5761071a612a12565b5b8152602001908152602001600020805480602002602001604051908101604052809291908181526020016000905b82821015610849578382906000526020600020906007020160405180610100016040529081600082015481526020016001820160009054906101000a900473ffffffffffffffffffffffffffffffffffffffff1673ffffffffffffffffffffffffffffffffffffffff1673ffffffffffffffffffffffffffffffffffffffff1681526020016001820160149054906101000a900460ff1660018111156107f2576107f1612a12565b5b600181111561080457610803612a12565b5b81526020016002820154815260200160038201548152602001600482015481526020016005820154815260200160068201548152505081526020019060010190610749565b50505050905092915050565b6002602052816000526040600020602052806000526040600020600091509150505481565b82600073ffffffffffffffffffffffffffffffffffffffff1660008083815260200190815260200160002060010160009054906101000a900473ffffffffffffffffffffffffffffffffffffffff1673ffffffffffffffffffffffffffffffffffffffff161415610920576040517f08c379a00000000000000000000000000000000000000000000000000000000081526004016109179061330c565b60405180910390fd5b837f5553444300000000000000000000000000000000000000000000000000000000811415610984576040517f08c379a000000000000000000000000000000000000000000000000000000000815260040161097b90613378565b60405180910390fd5b60018081111561099757610996612a12565b5b8360018111156109aa576109a9612a12565b5b1415610a445783600260003373ffffffffffffffffffffffffffffffffffffffff1673ffffffffffffffffffffffffffffffffffffffff1681526020019081526020016000206000878152602001908152602001600020541015610a43576040517f08c379a0000000000000000000000000000000000000000000000000000000008152600401610a3a906133e4565b60405180910390fd5b5b6000600360008781526020019081526020016000206000806001811115610a6e57610a6d612a12565b5b866001811115610a8157610a80612a12565b5b14610a8d576000610a90565b60015b6001811115610aa257610aa1612a12565b5b815260200190815260200160002090506000808690505b828054905082108015610acc5750600081115b156111fe576000838381548110610ae657610ae56130f8565b5b906000526020600020906007020160040154848481548110610b0b57610b0a6130f8565b5b906000526020600020906007020160030154610b279190613404565b90506000818311610b385782610b3a565b815b90508083610b489190613404565b925080858581548110610b5e57610b5d6130f8565b5b90600052602060002090600702016004016000828254610b7e9190613210565b925050819055503373ffffffffffffffffffffffffffffffffffffffff16858581548110610baf57610bae6130f8565b5b906000526020600020906007020160010160009054906101000a900473ffffffffffffffffffffffffffffffffffffffff1673ffffffffffffffffffffffffffffffffffffffff168b7fdb0c486e680ba8026643e6a85f8d157b5e7bcd4b32b54d564542570a9eb20416600654898981548110610c2f57610c2e6130f8565b5b906000526020600020906007020160000154868b8b81548110610c5557610c546130f8565b5b90600052602060002090600702016005015442604051610c79959493929190613438565b60405180910390a4600180811115610c9457610c93612a12565b5b886001811115610ca757610ca6612a12565b5b1415610e835780600260003373ffffffffffffffffffffffffffffffffffffffff1673ffffffffffffffffffffffffffffffffffffffff16815260200190815260200160002060008c81526020019081526020016000206000828254610d0d9190613404565b925050819055506103e8858581548110610d2a57610d296130f8565b5b90600052602060002090600702016005015482610d479190613156565b610d5191906131df565b600260003373ffffffffffffffffffffffffffffffffffffffff1673ffffffffffffffffffffffffffffffffffffffff16815260200190815260200160002060007f555344430000000000000000000000000000000000000000000000000000000081526020019081526020016000206000828254610dd09190613210565b925050819055508060026000878781548110610def57610dee6130f8565b5b906000526020600020906007020160010160009054906101000a900473ffffffffffffffffffffffffffffffffffffffff1673ffffffffffffffffffffffffffffffffffffffff1673ffffffffffffffffffffffffffffffffffffffff16815260200190815260200160002060008c81526020019081526020016000206000828254610e7b9190613210565b925050819055505b60006001811115610e9757610e96612a12565b5b886001811115610eaa57610ea9612a12565b5b14156111d1576103e8858581548110610ec657610ec56130f8565b5b90600052602060002090600702016005015482610ee39190613156565b610eed91906131df565b600260003373ffffffffffffffffffffffffffffffffffffffff1673ffffffffffffffffffffffffffffffffffffffff16815260200190815260200160002060007f55534443000000000000000000000000000000000000000000000000000000008152602001908152602001600020541015610f9f576040517f08c379a0000000000000000000000000000000000000000000000000000000008152600401610f96906134d7565b60405180910390fd5b80600260003373ffffffffffffffffffffffffffffffffffffffff1673ffffffffffffffffffffffffffffffffffffffff16815260200190815260200160002060008c81526020019081526020016000206000828254610fff9190613210565b925050819055506103e885858154811061101c5761101b6130f8565b5b906000526020600020906007020160050154826110399190613156565b61104391906131df565b600260003373ffffffffffffffffffffffffffffffffffffffff1673ffffffffffffffffffffffffffffffffffffffff16815260200190815260200160002060007f5553444300000000000000000000000000000000000000000000000000000000815260200190815260200160002060008282546110c29190613404565b925050819055506103e88585815481106110df576110de6130f8565b5b906000526020600020906007020160050154826110fc9190613156565b61110691906131df565b6002600087878154811061111d5761111c6130f8565b5b906000526020600020906007020160010160009054906101000a900473ffffffffffffffffffffffffffffffffffffffff1673ffffffffffffffffffffffffffffffffffffffff1673ffffffffffffffffffffffffffffffffffffffff16815260200190815260200160002060007f5553444300000000000000000000000000000000000000000000000000000000815260200190815260200160002060008282546111c99190613210565b925050819055505b600660008154809291906111e490613266565b919050555083806111f490613266565b9450505050610ab9565b600091505b82805490508210801561125d5750828281548110611224576112236130f8565b5b906000526020600020906007020160030154838381548110611249576112486130f8565b5b906000526020600020906007020160040154145b1561146d5760008290505b600184805490506112799190613404565b8110156113c4578360018261128e9190613210565b8154811061129f5761129e6130f8565b5b90600052602060002090600702018482815481106112c0576112bf6130f8565b5b9060005260206000209060070201600082015481600001556001820160009054906101000a900473ffffffffffffffffffffffffffffffffffffffff168160010160006101000a81548173ffffffffffffffffffffffffffffffffffffffff021916908373ffffffffffffffffffffffffffffffffffffffff1602179055506001820160149054906101000a900460ff168160010160146101000a81548160ff0219169083600181111561137757611376612a12565b5b0217905550600282015481600201556003820154816003015560048201548160040155600582015481600501556006820154816006015590505080806113bc90613266565b915050611268565b50828054806113d6576113d56134f7565b5b60019003818190600052602060002090600702016000808201600090556001820160006101000a81549073ffffffffffffffffffffffffffffffffffffffff02191690556001820160146101000a81549060ff02191690556002820160009055600382016000905560048201600090556005820160009055600682016000905550509055818061146590613266565b925050611203565b5050505050505050565b60065481565b60006020528060005260406000206000915090508060000154908060010160009054906101000a900473ffffffffffffffffffffffffffffffffffffffff16905082565b600460009054906101000a900473ffffffffffffffffffffffffffffffffffffffff1673ffffffffffffffffffffffffffffffffffffffff163373ffffffffffffffffffffffffffffffffffffffff1614611551576040517f08c379a000000000000000000000000000000000000000000000000000000000815260040161154890613572565b60405180910390fd5b60405180604001604052808381526020018273ffffffffffffffffffffffffffffffffffffffff168152506000808481526020019081526020016000206000820151816000015560208201518160010160006101000a81548173ffffffffffffffffffffffffffffffffffffffff021916908373ffffffffffffffffffffffffffffffffffffffff16021790555090505060018290806001815401808255809150506001900390600052602060002001600090919091909150555050565b6001818154811061161f57600080fd5b906000526020600020016000915090505481565b80600073ffffffffffffffffffffffffffffffffffffffff1660008083815260200190815260200160002060010160009054906101000a900473ffffffffffffffffffffffffffffffffffffffff1673ffffffffffffffffffffffffffffffffffffffff1614156116d9576040517f08c379a00000000000000000000000000000000000000000000000000000000081526004016116d09061330c565b60405180910390fd5b82600260003373ffffffffffffffffffffffffffffffffffffffff1673ffffffffffffffffffffffffffffffffffffffff168152602001908152602001600020600084815260200190815260200160002054101561176c576040517f08c379a0000000000000000000000000000000000000000000000000000000008152600401611763906135de565b60405180910390fd5b82600260003373ffffffffffffffffffffffffffffffffffffffff1673ffffffffffffffffffffffffffffffffffffffff168152602001908152602001600020600084815260200190815260200160002060008282546117cc9190613404565b9250508190555060008083815260200190815260200160002060010160009054906101000a900473ffffffffffffffffffffffffffffffffffffffff1673ffffffffffffffffffffffffffffffffffffffff1663a9059cbb33856040518363ffffffff1660e01b81526004016118439291906135fe565b6020604051808303816000875af1158015611862573d6000803e3d6000fd5b505050506040513d601f19601f82011682018060405250810190611886919061365f565b50505050565b6060600060018054905067ffffffffffffffff8111156118af576118ae61368c565b5b6040519080825280602002602001820160405280156118e857816020015b6118d56128cb565b8152602001906001900390816118cd5790505b50905060005b6001805490508110156119dd5760405180604001604052806000806001858154811061191d5761191c6130f8565b5b9060005260206000200154815260200190815260200160002060000154815260200160008060018581548110611956576119556130f8565b5b9060005260206000200154815260200190815260200160002060010160009054906101000a900473ffffffffffffffffffffffffffffffffffffffff1673ffffffffffffffffffffffffffffffffffffffff168152508282815181106119bf576119be6130f8565b5b602002602001018190525080806119d590613266565b9150506118ee565b508091505090565b80600073ffffffffffffffffffffffffffffffffffffffff1660008083815260200190815260200160002060010160009054906101000a900473ffffffffffffffffffffffffffffffffffffffff1673ffffffffffffffffffffffffffffffffffffffff161415611a8b576040517f08c379a0000000000000000000000000000000000000000000000000000000008152600401611a829061330c565b60405180910390fd5b60008083815260200190815260200160002060010160009054906101000a900473ffffffffffffffffffffffffffffffffffffffff1673ffffffffffffffffffffffffffffffffffffffff166323b872dd3330866040518463ffffffff1660e01b8152600401611afd939291906136bb565b6020604051808303816000875af1158015611b1c573d6000803e3d6000fd5b505050506040513d601f19601f82011682018060405250810190611b40919061365f565b5082600260003373ffffffffffffffffffffffffffffffffffffffff1673ffffffffffffffffffffffffffffffffffffffff16815260200190815260200160002060008481526020019081526020016000206000828254611ba19190613210565b92505081905550505050565b83600073ffffffffffffffffffffffffffffffffffffffff1660008083815260200190815260200160002060010160009054906101000a900473ffffffffffffffffffffffffffffffffffffffff1673ffffffffffffffffffffffffffffffffffffffff161415611c53576040517f08c379a0000000000000000000000000000000000000000000000000000000008152600401611c4a9061330c565b60405180910390fd5b847f5553444300000000000000000000000000000000000000000000000000000000811415611cb7576040517f08c379a0000000000000000000000000000000000000000000000000000000008152600401611cae90613378565b60405180910390fd5b600180811115611cca57611cc9612a12565b5b836001811115611cdd57611cdc612a12565b5b1415611d7b5784600260003373ffffffffffffffffffffffffffffffffffffffff1673ffffffffffffffffffffffffffffffffffffffff1681526020019081526020016000206000888152602001908152602001600020541015611d76576040517f08c379a0000000000000000000000000000000000000000000000000000000008152600401611d6d906133e4565b60405180910390fd5b611e47565b6103e88486611d8a9190613156565b611d9491906131df565b600260003373ffffffffffffffffffffffffffffffffffffffff1673ffffffffffffffffffffffffffffffffffffffff16815260200190815260200160002060007f55534443000000000000000000000000000000000000000000000000000000008152602001908152602001600020541015611e46576040517f08c379a0000000000000000000000000000000000000000000000000000000008152600401611e3d906134d7565b60405180910390fd5b5b6000600360008881526020019081526020016000206000856001811115611e7157611e70612a12565b5b815260200190815260200160002090508060405180610100016040528060055481526020013373ffffffffffffffffffffffffffffffffffffffff168152602001866001811115611ec557611ec4612a12565b5b8152602001898152602001888152602001600081526020018781526020014281525090806001815401808255809150506001900390600052602060002090600702016000909190919091506000820151816000015560208201518160010160006101000a81548173ffffffffffffffffffffffffffffffffffffffff021916908373ffffffffffffffffffffffffffffffffffffffff16021790555060408201518160010160146101000a81548160ff02191690836001811115611f8c57611f8b612a12565b5b0217905550606082015181600201556080820151816003015560a0820151816004015560c0820151816005015560e082015181600601555050600180811115611fd857611fd7612a12565b5b846001811115611feb57611fea612a12565b5b141561205d5785600260003373ffffffffffffffffffffffffffffffffffffffff1673ffffffffffffffffffffffffffffffffffffffff168152602001908152602001600020600089815260200190815260200160002060008282546120519190613404565b925050819055506120fd565b6103e8858761206c9190613156565b61207691906131df565b600260003373ffffffffffffffffffffffffffffffffffffffff1673ffffffffffffffffffffffffffffffffffffffff16815260200190815260200160002060007f5553444300000000000000000000000000000000000000000000000000000000815260200190815260200160002060008282546120f59190613404565b925050819055505b600080828054905011612111576000612123565b600182805490506121229190613404565b5b90505b6000811115612577576000600181111561214357612142612a12565b5b85600181111561215657612155612a12565b5b1480156121b65750818181548110612171576121706130f8565b5b906000526020600020906007020160050154826001836121919190613404565b815481106121a2576121a16130f8565b5b906000526020600020906007020160050154115b156121c057612577565b6001808111156121d3576121d2612a12565b5b8560018111156121e6576121e5612a12565b5b1480156122465750818181548110612201576122006130f8565b5b906000526020600020906007020160050154826001836122219190613404565b81548110612232576122316130f8565b5b906000526020600020906007020160050154105b1561225057612577565b6000826001836122609190613404565b81548110612271576122706130f8565b5b906000526020600020906007020160405180610100016040529081600082015481526020016001820160009054906101000a900473ffffffffffffffffffffffffffffffffffffffff1673ffffffffffffffffffffffffffffffffffffffff1673ffffffffffffffffffffffffffffffffffffffff1681526020016001820160149054906101000a900460ff1660018111156123105761230f612a12565b5b600181111561232257612321612a12565b5b815260200160028201548152602001600382015481526020016004820154815260200160058201548152602001600682015481525050905082828154811061236d5761236c6130f8565b5b9060005260206000209060070201836001846123899190613404565b8154811061239a576123996130f8565b5b9060005260206000209060070201600082015481600001556001820160009054906101000a900473ffffffffffffffffffffffffffffffffffffffff168160010160006101000a81548173ffffffffffffffffffffffffffffffffffffffff021916908373ffffffffffffffffffffffffffffffffffffffff1602179055506001820160149054906101000a900460ff168160010160146101000a81548160ff0219169083600181111561245157612450612a12565b5b021790555060028201548160020155600382015481600301556004820154816004015560058201548160050155600682015481600601559050508083838154811061249f5761249e6130f8565b5b90600052602060002090600702016000820151816000015560208201518160010160006101000a81548173ffffffffffffffffffffffffffffffffffffffff021916908373ffffffffffffffffffffffffffffffffffffffff16021790555060408201518160010160146101000a81548160ff0219169083600181111561252957612528612a12565b5b0217905550606082015181600201556080820151816003015560a0820151816004015560c0820151816005015560e08201518160060155905050818061256e906136f2565b92505050612126565b6005600081548092919061258a90613266565b91905055505050505050505050565b600460009054906101000a900473ffffffffffffffffffffffffffffffffffffffff1681565b60006003600085815260200190815260200160002060008460018111156125e9576125e8612a12565b5b81526020019081526020016000208281548110612609576126086130f8565b5b90600052602060002090600702016003015414156128c6576000600160036000868152602001908152602001600020600085600181111561264d5761264c612a12565b5b8152602001908152602001600020805490506126699190613404565b905060036000858152602001908152602001600020600084600181111561269357612692612a12565b5b815260200190815260200160002081815481106126b3576126b26130f8565b5b90600052602060002090600702016003600086815260200190815260200160002060008560018111156126e9576126e8612a12565b5b81526020019081526020016000208381548110612709576127086130f8565b5b9060005260206000209060070201600082015481600001556001820160009054906101000a900473ffffffffffffffffffffffffffffffffffffffff168160010160006101000a81548173ffffffffffffffffffffffffffffffffffffffff021916908373ffffffffffffffffffffffffffffffffffffffff1602179055506001820160149054906101000a900460ff168160010160146101000a81548160ff021916908360018111156127c0576127bf612a12565b5b0217905550600282015481600201556003820154816003015560048201548160040155600582015481600501556006820154816006015590505060036000858152602001908152602001600020600084600181111561282257612821612a12565b5b81526020019081526020016000208054806128405761283f6134f7565b5b60019003818190600052602060002090600702016000808201600090556001820160006101000a81549073ffffffffffffffffffffffffffffffffffffffff02191690556001820160146101000a81549060ff02191690556002820160009055600382016000905560048201600090556005820160009055600682016000905550509055505b505050565b604051806040016040528060008019168152602001600073ffffffffffffffffffffffffffffffffffffffff1681525090565b600080fd5b6000819050919050565b61291681612903565b811461292157600080fd5b50565b6000813590506129338161290d565b92915050565b6000819050919050565b61294c81612939565b811461295757600080fd5b50565b60008135905061296981612943565b92915050565b600080600060608486031215612988576129876128fe565b5b600061299686828701612924565b93505060206129a78682870161295a565b92505060406129b88682870161295a565b9150509250925092565b6129cb81612939565b82525050565b600073ffffffffffffffffffffffffffffffffffffffff82169050919050565b60006129fc826129d1565b9050919050565b612a0c816129f1565b82525050565b7f4e487b7100000000000000000000000000000000000000000000000000000000600052602160045260246000fd5b60028110612a5257612a51612a12565b5b50565b6000819050612a6382612a41565b919050565b6000612a7382612a55565b9050919050565b612a8381612a68565b82525050565b612a9281612903565b82525050565b600061010082019050612aae600083018b6129c2565b612abb602083018a612a03565b612ac86040830189612a7a565b612ad56060830188612a89565b612ae260808301876129c2565b612aef60a08301866129c2565b612afc60c08301856129c2565b612b0960e08301846129c2565b9998505050505050505050565b6000602082019050612b2b60008301846129c2565b92915050565b60028110612b3e57600080fd5b50565b600081359050612b5081612b31565b92915050565b600080600060608486031215612b6f57612b6e6128fe565b5b6000612b7d86828701612924565b9350506020612b8e86828701612b41565b9250506040612b9f8682870161295a565b9150509250925092565b60008060408385031215612bc057612bbf6128fe565b5b6000612bce85828601612924565b9250506020612bdf85828601612b41565b9150509250929050565b600081519050919050565b600082825260208201905092915050565b6000819050602082019050919050565b612c1e81612939565b82525050565b612c2d816129f1565b82525050565b612c3c81612a68565b82525050565b612c4b81612903565b82525050565b61010082016000820151612c686000850182612c15565b506020820151612c7b6020850182612c24565b506040820151612c8e6040850182612c33565b506060820151612ca16060850182612c42565b506080820151612cb46080850182612c15565b5060a0820151612cc760a0850182612c15565b5060c0820151612cda60c0850182612c15565b5060e0820151612ced60e0850182612c15565b50505050565b6000612cff8383612c51565b6101008301905092915050565b6000602082019050919050565b6000612d2482612be9565b612d2e8185612bf4565b9350612d3983612c05565b8060005b83811015612d6a578151612d518882612cf3565b9750612d5c83612d0c565b925050600181019050612d3d565b5085935050505092915050565b60006020820190508181036000830152612d918184612d19565b905092915050565b612da2816129f1565b8114612dad57600080fd5b50565b600081359050612dbf81612d99565b92915050565b60008060408385031215612ddc57612ddb6128fe565b5b6000612dea85828601612db0565b9250506020612dfb85828601612924565b9150509250929050565b600080600060608486031215612e1e57612e1d6128fe565b5b6000612e2c86828701612924565b9350506020612e3d8682870161295a565b9250506040612e4e86828701612b41565b9150509250925092565b600060208284031215612e6e57612e6d6128fe565b5b6000612e7c84828501612924565b91505092915050565b6000604082019050612e9a6000830185612a89565b612ea76020830184612a03565b9392505050565b60008060408385031215612ec557612ec46128fe565b5b6000612ed385828601612924565b9250506020612ee485828601612db0565b9150509250929050565b600060208284031215612f0457612f036128fe565b5b6000612f128482850161295a565b91505092915050565b6000602082019050612f306000830184612a89565b92915050565b60008060408385031215612f4d57612f4c6128fe565b5b6000612f5b8582860161295a565b9250506020612f6c85828601612924565b9150509250929050565b600081519050919050565b600082825260208201905092915050565b6000819050602082019050919050565b604082016000820151612fb86000850182612c42565b506020820151612fcb6020850182612c24565b50505050565b6000612fdd8383612fa2565b60408301905092915050565b6000602082019050919050565b600061300182612f76565b61300b8185612f81565b935061301683612f92565b8060005b8381101561304757815161302e8882612fd1565b975061303983612fe9565b92505060018101905061301a565b5085935050505092915050565b6000602082019050818103600083015261306e8184612ff6565b905092915050565b600080600080608085870312156130905761308f6128fe565b5b600061309e87828801612924565b94505060206130af8782880161295a565b93505060406130c08782880161295a565b92505060606130d187828801612b41565b91505092959194509250565b60006020820190506130f26000830184612a03565b92915050565b7f4e487b7100000000000000000000000000000000000000000000000000000000600052603260045260246000fd5b7f4e487b7100000000000000000000000000000000000000000000000000000000600052601160045260246000fd5b600061316182612939565b915061316c83612939565b9250817fffffffffffffffffffffffffffffffffffffffffffffffffffffffffffffffff04831182151516156131a5576131a4613127565b5b828202905092915050565b7f4e487b7100000000000000000000000000000000000000000000000000000000600052601260045260246000fd5b60006131ea82612939565b91506131f583612939565b925082613205576132046131b0565b5b828204905092915050565b600061321b82612939565b915061322683612939565b9250827fffffffffffffffffffffffffffffffffffffffffffffffffffffffffffffffff0382111561325b5761325a613127565b5b828201905092915050565b600061327182612939565b91507fffffffffffffffffffffffffffffffffffffffffffffffffffffffffffffffff8214156132a4576132a3613127565b5b600182019050919050565b600082825260208201905092915050565b7f7468697320746f6b656e20646f6573206e6f7420657869737400000000000000600082015250565b60006132f66019836132af565b9150613301826132c0565b602082019050919050565b60006020820190508181036000830152613325816132e9565b9050919050565b7f63616e6e6f742074726164652055534443000000000000000000000000000000600082015250565b60006133626011836132af565b915061336d8261332c565b602082019050919050565b6000602082019050818103600083015261339181613355565b9050919050565b7f746f6b656e2062616c616e636520746f6f206c6f770000000000000000000000600082015250565b60006133ce6015836132af565b91506133d982613398565b602082019050919050565b600060208201905081810360008301526133fd816133c1565b9050919050565b600061340f82612939565b915061341a83612939565b92508282101561342d5761342c613127565b5b828203905092915050565b600060a08201905061344d60008301886129c2565b61345a60208301876129c2565b61346760408301866129c2565b61347460608301856129c2565b61348160808301846129c2565b9695505050505050565b7f757364632062616c616e636520746f6f206c6f77000000000000000000000000600082015250565b60006134c16014836132af565b91506134cc8261348b565b602082019050919050565b600060208201905081810360008301526134f0816134b4565b9050919050565b7f4e487b7100000000000000000000000000000000000000000000000000000000600052603160045260246000fd5b7f6f6e6c792061646d696e00000000000000000000000000000000000000000000600082015250565b600061355c600a836132af565b915061356782613526565b602082019050919050565b6000602082019050818103600083015261358b8161354f565b9050919050565b7f62616c616e636520746f6f206c6f770000000000000000000000000000000000600082015250565b60006135c8600f836132af565b91506135d382613592565b602082019050919050565b600060208201905081810360008301526135f7816135bb565b9050919050565b60006040820190506136136000830185612a03565b61362060208301846129c2565b9392505050565b60008115159050919050565b61363c81613627565b811461364757600080fd5b50565b60008151905061365981613633565b92915050565b600060208284031215613675576136746128fe565b5b60006136838482850161364a565b91505092915050565b7f4e487b7100000000000000000000000000000000000000000000000000000000600052604160045260246000fd5b60006060820190506136d06000830186612a03565b6136dd6020830185612a03565b6136ea60408301846129c2565b949350505050565b60006136fd82612939565b9150600082141561371157613710613127565b5b60018203905091905056fea2646970667358221220586f6661c1de4b2f61a351671af016bfe8f64feec3678b146d1456f002991a8064736f6c634300080a0033",
  "immutableReferences": {},
  "source": "// SPDX-License-Identifier: MIT\r\n\r\npragma solidity >=0.7.0 <0.9.0;\r\n\r\nimport '@openzeppelin/contracts/token/ERC20/IERC20.sol';\r\n\r\ncontract Dex {\r\n\r\n    enum Side {\r\n        BUY,\r\n        SELL\r\n    }\r\n\r\n    struct Token {\r\n        bytes32 ticker;\r\n        address tokenAddress;\r\n    }\r\n\r\n    struct Order {\r\n        uint id;\r\n        address trader;\r\n        Side side;\r\n        bytes32 ticker;\r\n        uint amount;\r\n        uint filled;\r\n        uint price;\r\n        uint date;\r\n    }\r\n\r\n    mapping(bytes32 => Token) public tokens;\r\n    bytes32[] public tokenList;\r\n    mapping(address => mapping(bytes32 => uint)) public traderBalances;\r\n    mapping(bytes32 => mapping(uint => Order[])) public orderBook;\r\n    address public admin;\r\n    uint public nextOrderId;\r\n    uint public nextTradeId;\r\n    bytes32 constant USDC = bytes32('USDC');\r\n\r\n    event NewTrade(uint tradeId, uint orderId, bytes32 indexed ticker, address indexed trader1, address indexed trader2, uint amount, uint price, uint date);\r\n\r\n    constructor() {\r\n        admin = msg.sender;\r\n    }\r\n\r\n    function getOrders(\r\n        bytes32 ticker,\r\n        Side side)\r\n        external \r\n        view\r\n        returns(Order[] memory) {\r\n        return orderBook[ticker][uint(side)];\r\n    }\r\n\r\n    function getTokens() \r\n        external \r\n        view \r\n        returns(Token[] memory) {\r\n        Token[] memory _tokens = new Token[](tokenList.length);\r\n        for (uint i = 0; i < tokenList.length; i++) {\r\n          _tokens[i] = Token(\r\n            tokens[tokenList[i]].ticker,\r\n            tokens[tokenList[i]].tokenAddress\r\n          );\r\n        }\r\n        return _tokens;\r\n    }\r\n\r\n    function addToken(bytes32 ticker, address tokenAddress) onlyAdmin() external {\r\n        tokens[ticker] = Token(ticker, tokenAddress);\r\n        tokenList.push(ticker);\r\n    }\r\n\r\n    function deposit(uint amount, bytes32 ticker) tokenExist(ticker) external {\r\n        IERC20(tokens[ticker].tokenAddress).transferFrom(msg.sender, address(this), amount);\r\n        traderBalances[msg.sender][ticker] += amount;\r\n    }\r\n\r\n    function withdraw(uint amount, bytes32 ticker) tokenExist(ticker) external {\r\n        require(traderBalances[msg.sender][ticker] >= amount, 'balance too low');\r\n        traderBalances[msg.sender][ticker] -= amount;\r\n        IERC20(tokens[ticker].tokenAddress).transfer(msg.sender, amount);\r\n    }\r\n\r\n    function createLimitOrder(bytes32 ticker, uint amount, uint price, Side side) tokenExist(ticker) tokenIsNotUsdc(ticker) external {\r\n        if(side == Side.SELL) {\r\n            require(traderBalances[msg.sender][ticker] >= amount, 'token balance too low');\r\n        } else {\r\n            require(traderBalances[msg.sender][USDC] >= amount * price / 1000, 'usdc balance too low');\r\n        }\r\n        Order[] storage orders = orderBook[ticker][uint(side)];\r\n        orders.push(Order(\r\n            nextOrderId,\r\n            msg.sender,\r\n            side,\r\n            ticker,\r\n            amount,\r\n            0,\r\n            price,\r\n            block.timestamp\r\n        ));\r\n\r\n        if(side == Side.SELL) {\r\n            traderBalances[msg.sender][ticker] -= amount;\r\n        } else {\r\n            traderBalances[msg.sender][USDC] -= amount * price / 1000;\r\n        }\r\n\r\n        uint i = orders.length > 0 ? orders.length - 1 : 0;\r\n        while(i > 0) {\r\n            if(side == Side.BUY && orders[i - 1].price > orders[i].price) {\r\n                break;\r\n            }\r\n            if(side == Side.SELL && orders[i - 1].price < orders[i].price) {\r\n                break;\r\n            }\r\n            Order memory order = orders[i - 1];\r\n            orders[i - 1] = orders[i];\r\n            orders[i] = order;\r\n            i--;\r\n        }\r\n        nextOrderId++;\r\n    }\r\n\r\n    function createMarketOrder(bytes32 ticker, uint amount, Side side) tokenExist(ticker) tokenIsNotUsdc(ticker) external {\r\n        if(side == Side.SELL) {\r\n            require(traderBalances[msg.sender][ticker] >= amount, 'token balance too low');\r\n        }\r\n        Order[] storage orders = orderBook[ticker][uint(side == Side.BUY ? Side.SELL : Side.BUY)];\r\n        uint i;\r\n        uint remaining = amount;\r\n\r\n        while(i < orders.length && remaining > 0) {\r\n            uint available = orders[i].amount - orders[i].filled;\r\n            uint matched = (remaining > available) ? available : remaining;\r\n            remaining -= matched;\r\n            orders[i].filled += matched;\r\n            emit NewTrade(nextTradeId, orders[i].id, ticker, orders[i].trader, msg.sender, matched, orders[i].price, block.timestamp);\r\n            if(side == Side.SELL) {\r\n                traderBalances[msg.sender][ticker] -= matched;\r\n                traderBalances[msg.sender][USDC] += matched * orders[i].price / 1000;\r\n                traderBalances[orders[i].trader][ticker] += matched;\r\n            }\r\n            if(side == Side.BUY) {\r\n                require(traderBalances[msg.sender][USDC] >= matched * orders[i].price / 1000, 'usdc balance too low');\r\n                traderBalances[msg.sender][ticker] += matched;\r\n                traderBalances[msg.sender][USDC] -= matched * orders[i].price / 1000;\r\n                traderBalances[orders[i].trader][USDC] += matched * orders[i].price / 1000;\r\n            }\r\n            nextTradeId++;\r\n            i++;\r\n        }\r\n\r\n        i = 0;\r\n        while(i < orders.length && orders[i].filled == orders[i].amount) {\r\n            for(uint j = i; j < orders.length - 1; j++) {\r\n                orders[j] = orders[j + 1];\r\n            }\r\n            orders.pop();\r\n            i++;\r\n        }\r\n    }\r\n\r\n    function deleteOrder(bytes32 _ticker, Side _side, uint _id) external {\r\n        Order[] storage orders = orderBook[_ticker][uint(_side)];\r\n\r\n        for (uint i = 0; i < orders.length; i++) {\r\n            if (orders[i].id == _id && orders[i].trader == msg.sender) {\r\n                \r\n                if(orders[i].side == Side.BUY) {\r\n                    traderBalances[msg.sender][USDC] += orders[i].amount * orders[i].price / 1000;\r\n                } else {\r\n                    traderBalances[msg.sender][_ticker] += orders[i].amount;\r\n                }\r\n\r\n                orders[i].amount = 0;\r\n\r\n                deleteAmountZero(\r\n                    orders[i].ticker,\r\n                    _side,\r\n                    i\r\n                );\r\n            }\r\n        }\r\n    }\r\n\r\n    function deleteAmountZero(bytes32 _ticker, Side _side, uint _id) internal {\r\n        if (orderBook[_ticker][uint (_side)][_id].amount == 0) {\r\n            uint lastElement = orderBook[_ticker][uint (_side)].length - 1;\r\n\r\n            orderBook[_ticker][uint (_side)][_id] = orderBook[_ticker][uint (_side)][lastElement];\r\n\r\n            orderBook[_ticker][uint (_side)].pop();\r\n        }\r\n    }\r\n\r\n\r\n    modifier tokenIsNotUsdc(bytes32 ticker) {\r\n        require(ticker != USDC, 'cannot trade USDC');\r\n        _;\r\n    }\r\n\r\n    modifier tokenExist(bytes32 ticker) {\r\n        require(tokens[ticker].tokenAddress != address(0), 'this token does not exist');\r\n        _;\r\n    }\r\n\r\n    modifier onlyAdmin() {\r\n        require(msg.sender == admin, 'only admin');\r\n        _;\r\n    }\r\n}",
  "sourcePath": "F:\\01_Projects\\01_Apps\\dex\\contracts\\Dex.sol",
  "compiler": {
    "name": "solc",
    "version": "0.8.10+commit.fc410830.Emscripten.clang"
  },
  "schemaVersion": "3.4.3",
  "updatedAt": "2022-09-08T17:54:17.128Z",
  "networkType": "ethereum",
  "devdoc": {
    "kind": "dev",
    "methods": {},
    "version": 1
  },
  "userdoc": {
    "kind": "user",
    "methods": {},
    "version": 1
  }
}