{
  "contractName": "Dex",
  "abi": [
    {
      "inputs": [],
      "stateMutability": "nonpayable",
      "type": "constructor"
    },
    {
      "anonymous": false,
      "inputs": [
        {
          "indexed": false,
          "internalType": "uint256",
          "name": "tradeId",
          "type": "uint256"
        },
        {
          "indexed": false,
          "internalType": "uint256",
          "name": "orderId",
          "type": "uint256"
        },
        {
          "indexed": true,
          "internalType": "bytes32",
          "name": "ticker",
          "type": "bytes32"
        },
        {
          "indexed": true,
          "internalType": "address",
          "name": "trader1",
          "type": "address"
        },
        {
          "indexed": true,
          "internalType": "address",
          "name": "trader2",
          "type": "address"
        },
        {
          "indexed": false,
          "internalType": "uint256",
          "name": "amount",
          "type": "uint256"
        },
        {
          "indexed": false,
          "internalType": "uint256",
          "name": "price",
          "type": "uint256"
        },
        {
          "indexed": false,
          "internalType": "uint256",
          "name": "date",
          "type": "uint256"
        }
      ],
      "name": "NewTrade",
      "type": "event"
    },
    {
      "inputs": [],
      "name": "admin",
      "outputs": [
        {
          "internalType": "address",
          "name": "",
          "type": "address"
        }
      ],
      "stateMutability": "view",
      "type": "function",
      "constant": true
    },
    {
      "inputs": [],
      "name": "nextOrderId",
      "outputs": [
        {
          "internalType": "uint256",
          "name": "",
          "type": "uint256"
        }
      ],
      "stateMutability": "view",
      "type": "function",
      "constant": true
    },
    {
      "inputs": [],
      "name": "nextTradeId",
      "outputs": [
        {
          "internalType": "uint256",
          "name": "",
          "type": "uint256"
        }
      ],
      "stateMutability": "view",
      "type": "function",
      "constant": true
    },
    {
      "inputs": [
        {
          "internalType": "bytes32",
          "name": "",
          "type": "bytes32"
        },
        {
          "internalType": "uint256",
          "name": "",
          "type": "uint256"
        },
        {
          "internalType": "uint256",
          "name": "",
          "type": "uint256"
        }
      ],
      "name": "orderBook",
      "outputs": [
        {
          "internalType": "uint256",
          "name": "id",
          "type": "uint256"
        },
        {
          "internalType": "address",
          "name": "trader",
          "type": "address"
        },
        {
          "internalType": "enum Dex.Side",
          "name": "side",
          "type": "uint8"
        },
        {
          "internalType": "bytes32",
          "name": "ticker",
          "type": "bytes32"
        },
        {
          "internalType": "uint256",
          "name": "amount",
          "type": "uint256"
        },
        {
          "internalType": "uint256",
          "name": "filled",
          "type": "uint256"
        },
        {
          "internalType": "uint256",
          "name": "price",
          "type": "uint256"
        },
        {
          "internalType": "uint256",
          "name": "date",
          "type": "uint256"
        }
      ],
      "stateMutability": "view",
      "type": "function",
      "constant": true
    },
    {
      "inputs": [
        {
          "internalType": "uint256",
          "name": "",
          "type": "uint256"
        }
      ],
      "name": "tokenList",
      "outputs": [
        {
          "internalType": "bytes32",
          "name": "",
          "type": "bytes32"
        }
      ],
      "stateMutability": "view",
      "type": "function",
      "constant": true
    },
    {
      "inputs": [
        {
          "internalType": "bytes32",
          "name": "",
          "type": "bytes32"
        }
      ],
      "name": "tokens",
      "outputs": [
        {
          "internalType": "bytes32",
          "name": "ticker",
          "type": "bytes32"
        },
        {
          "internalType": "address",
          "name": "tokenAddress",
          "type": "address"
        }
      ],
      "stateMutability": "view",
      "type": "function",
      "constant": true
    },
    {
      "inputs": [
        {
          "internalType": "address",
          "name": "",
          "type": "address"
        },
        {
          "internalType": "bytes32",
          "name": "",
          "type": "bytes32"
        }
      ],
      "name": "traderBalances",
      "outputs": [
        {
          "internalType": "uint256",
          "name": "",
          "type": "uint256"
        }
      ],
      "stateMutability": "view",
      "type": "function",
      "constant": true
    },
    {
      "inputs": [
        {
          "internalType": "bytes32",
          "name": "ticker",
          "type": "bytes32"
        },
        {
          "internalType": "enum Dex.Side",
          "name": "side",
          "type": "uint8"
        }
      ],
      "name": "getOrders",
      "outputs": [
        {
          "components": [
            {
              "internalType": "uint256",
              "name": "id",
              "type": "uint256"
            },
            {
              "internalType": "address",
              "name": "trader",
              "type": "address"
            },
            {
              "internalType": "enum Dex.Side",
              "name": "side",
              "type": "uint8"
            },
            {
              "internalType": "bytes32",
              "name": "ticker",
              "type": "bytes32"
            },
            {
              "internalType": "uint256",
              "name": "amount",
              "type": "uint256"
            },
            {
              "internalType": "uint256",
              "name": "filled",
              "type": "uint256"
            },
            {
              "internalType": "uint256",
              "name": "price",
              "type": "uint256"
            },
            {
              "internalType": "uint256",
              "name": "date",
              "type": "uint256"
            }
          ],
          "internalType": "struct Dex.Order[]",
          "name": "",
          "type": "tuple[]"
        }
      ],
      "stateMutability": "view",
      "type": "function",
      "constant": true
    },
    {
      "inputs": [],
      "name": "getTokens",
      "outputs": [
        {
          "components": [
            {
              "internalType": "bytes32",
              "name": "ticker",
              "type": "bytes32"
            },
            {
              "internalType": "address",
              "name": "tokenAddress",
              "type": "address"
            }
          ],
          "internalType": "struct Dex.Token[]",
          "name": "",
          "type": "tuple[]"
        }
      ],
      "stateMutability": "view",
      "type": "function",
      "constant": true
    },
    {
      "inputs": [
        {
          "internalType": "bytes32",
          "name": "ticker",
          "type": "bytes32"
        },
        {
          "internalType": "address",
          "name": "tokenAddress",
          "type": "address"
        }
      ],
      "name": "addToken",
      "outputs": [],
      "stateMutability": "nonpayable",
      "type": "function"
    },
    {
      "inputs": [
        {
          "internalType": "uint256",
          "name": "amount",
          "type": "uint256"
        },
        {
          "internalType": "bytes32",
          "name": "ticker",
          "type": "bytes32"
        }
      ],
      "name": "deposit",
      "outputs": [],
      "stateMutability": "nonpayable",
      "type": "function"
    },
    {
      "inputs": [
        {
          "internalType": "uint256",
          "name": "amount",
          "type": "uint256"
        },
        {
          "internalType": "bytes32",
          "name": "ticker",
          "type": "bytes32"
        }
      ],
      "name": "withdraw",
      "outputs": [],
      "stateMutability": "nonpayable",
      "type": "function"
    },
    {
      "inputs": [
        {
          "internalType": "bytes32",
          "name": "ticker",
          "type": "bytes32"
        },
        {
          "internalType": "uint256",
          "name": "amount",
          "type": "uint256"
        },
        {
          "internalType": "uint256",
          "name": "price",
          "type": "uint256"
        },
        {
          "internalType": "enum Dex.Side",
          "name": "side",
          "type": "uint8"
        }
      ],
      "name": "createLimitOrder",
      "outputs": [],
      "stateMutability": "nonpayable",
      "type": "function"
    },
    {
      "inputs": [
        {
          "internalType": "bytes32",
          "name": "ticker",
          "type": "bytes32"
        },
        {
          "internalType": "uint256",
          "name": "amount",
          "type": "uint256"
        },
        {
          "internalType": "enum Dex.Side",
          "name": "side",
          "type": "uint8"
        }
      ],
      "name": "createMarketOrder",
      "outputs": [],
      "stateMutability": "nonpayable",
      "type": "function"
    },
    {
      "inputs": [
        {
          "internalType": "bytes32",
          "name": "_ticker",
          "type": "bytes32"
        },
        {
          "internalType": "enum Dex.Side",
          "name": "_side",
          "type": "uint8"
        },
        {
          "internalType": "uint256",
          "name": "_id",
          "type": "uint256"
        }
      ],
      "name": "deleteOrder",
      "outputs": [],
      "stateMutability": "nonpayable",
      "type": "function"
    }
  ],
  "bytecode": "0x608060405234801561001057600080fd5b5033600460006101000a81548173ffffffffffffffffffffffffffffffffffffffff021916908373ffffffffffffffffffffffffffffffffffffffff1602179055506135f6806100616000396000f3fe608060405234801561001057600080fd5b50600436106100f55760003560e01c8063904194a311610097578063aa6ca80811610066578063aa6ca8081461029e578063c9630cb0146102bc578063d9c0c950146102d8578063f851a440146102f4576100f5565b8063904194a3146102055780639776aacf146102365780639ead722214610252578063a8d2021a14610282576100f5565b806346e9658b116100d357806346e9658b1461016b57806372ce957e1461019b5780637f2c6246146101cb578063813ad083146101e7576100f5565b80630bb431b6146100fa5780632a58b3301461013157806343c690e71461014f575b600080fd5b610114600480360381019061010f9190612813565b610312565b60405161012898979695949392919061293c565b60405180910390f35b6101396103b1565b60405161014691906129ba565b60405180910390f35b610169600480360381019061016491906129fa565b6103b7565b005b61018560048036038101906101809190612a4d565b61051b565b6040516101929190612c1b565b60405180910390f35b6101b560048036038101906101b09190612c69565b61067f565b6040516101c291906129ba565b60405180910390f35b6101e560048036038101906101e09190612ca9565b6106a4565b005b6101ef611453565b6040516101fc91906129ba565b60405180910390f35b61021f600480360381019061021a9190612cfc565b611459565b60405161022d929190612d29565b60405180910390f35b610250600480360381019061024b9190612d52565b61149d565b005b61026c60048036038101906102679190612d92565b6115eb565b6040516102799190612dbf565b60405180910390f35b61029c60048036038101906102979190612dda565b61160f565b005b6102a6611868565b6040516102b39190612ef8565b60405180910390f35b6102d660048036038101906102d19190612dda565b6119c1565b005b6102f260048036038101906102ed9190612f1a565b611b89565b005b6102fc61243d565b6040516103099190612f81565b60405180910390f35b6003602052826000526040600020602052816000526040600020818154811061033a57600080fd5b906000526020600020906007020160009250925050508060000154908060010160009054906101000a900473ffffffffffffffffffffffffffffffffffffffff16908060010160149054906101000a900460ff16908060020154908060030154908060040154908060050154908060060154905088565b60055481565b60006003600085815260200190815260200160002060008460018111156103e1576103e06128b6565b5b8152602001908152602001600020905060005b8180549050811015610514578282828154811061041457610413612f9c565b5b9060005260206000209060070201600001541480156104a257503373ffffffffffffffffffffffffffffffffffffffff1682828154811061045857610457612f9c565b5b906000526020600020906007020160010160009054906101000a900473ffffffffffffffffffffffffffffffffffffffff1673ffffffffffffffffffffffffffffffffffffffff16145b156105015760008282815481106104bc576104bb612f9c565b5b9060005260206000209060070201600301819055506105008282815481106104e7576104e6612f9c565b5b9060005260206000209060070201600201548583612463565b5b808061050c90612ffa565b9150506103f4565b5050505050565b6060600360008481526020019081526020016000206000836001811115610545576105446128b6565b5b8152602001908152602001600020805480602002602001604051908101604052809291908181526020016000905b82821015610673578382906000526020600020906007020160405180610100016040529081600082015481526020016001820160009054906101000a900473ffffffffffffffffffffffffffffffffffffffff1673ffffffffffffffffffffffffffffffffffffffff1673ffffffffffffffffffffffffffffffffffffffff1681526020016001820160149054906101000a900460ff16600181111561061c5761061b6128b6565b5b600181111561062e5761062d6128b6565b5b81526020016002820154815260200160038201548152602001600482015481526020016005820154815260200160068201548152505081526020019060010190610573565b50505050905092915050565b6002602052816000526040600020602052806000526040600020600091509150505481565b82600073ffffffffffffffffffffffffffffffffffffffff1660008083815260200190815260200160002060010160009054906101000a900473ffffffffffffffffffffffffffffffffffffffff1673ffffffffffffffffffffffffffffffffffffffff16141561074a576040517f08c379a0000000000000000000000000000000000000000000000000000000008152600401610741906130a0565b60405180910390fd5b837f55534443000000000000000000000000000000000000000000000000000000008114156107ae576040517f08c379a00000000000000000000000000000000000000000000000000000000081526004016107a59061310c565b60405180910390fd5b6001808111156107c1576107c06128b6565b5b8360018111156107d4576107d36128b6565b5b141561086e5783600260003373ffffffffffffffffffffffffffffffffffffffff1673ffffffffffffffffffffffffffffffffffffffff168152602001908152602001600020600087815260200190815260200160002054101561086d576040517f08c379a000000000000000000000000000000000000000000000000000000000815260040161086490613178565b60405180910390fd5b5b6000600360008781526020019081526020016000206000806001811115610898576108976128b6565b5b8660018111156108ab576108aa6128b6565b5b146108b75760006108ba565b60015b60018111156108cc576108cb6128b6565b5b815260200190815260200160002090506000808690505b8280549050821080156108f65750600081115b156111da5760008383815481106109105761090f612f9c565b5b90600052602060002090600702016004015484848154811061093557610934612f9c565b5b9060005260206000209060070201600301546109519190613198565b905060008183116109625782610964565b815b905080836109729190613198565b92508085858154811061098857610987612f9c565b5b906000526020600020906007020160040160008282546109a891906131cc565b925050819055503373ffffffffffffffffffffffffffffffffffffffff168585815481106109d9576109d8612f9c565b5b906000526020600020906007020160010160009054906101000a900473ffffffffffffffffffffffffffffffffffffffff1673ffffffffffffffffffffffffffffffffffffffff168b7fdb0c486e680ba8026643e6a85f8d157b5e7bcd4b32b54d564542570a9eb20416600654898981548110610a5957610a58612f9c565b5b906000526020600020906007020160000154868b8b81548110610a7f57610a7e612f9c565b5b90600052602060002090600702016005015442604051610aa3959493929190613222565b60405180910390a4600180811115610abe57610abd6128b6565b5b886001811115610ad157610ad06128b6565b5b1415610db45780600260003373ffffffffffffffffffffffffffffffffffffffff1673ffffffffffffffffffffffffffffffffffffffff16815260200190815260200160002060008c81526020019081526020016000206000828254610b379190613198565b925050819055506103e8858581548110610b5457610b53612f9c565b5b90600052602060002090600702016005015482610b719190613275565b610b7b91906132fe565b600260003373ffffffffffffffffffffffffffffffffffffffff1673ffffffffffffffffffffffffffffffffffffffff16815260200190815260200160002060007f555344430000000000000000000000000000000000000000000000000000000081526020019081526020016000206000828254610bfa91906131cc565b925050819055508060026000878781548110610c1957610c18612f9c565b5b906000526020600020906007020160010160009054906101000a900473ffffffffffffffffffffffffffffffffffffffff1673ffffffffffffffffffffffffffffffffffffffff1673ffffffffffffffffffffffffffffffffffffffff16815260200190815260200160002060008c81526020019081526020016000206000828254610ca591906131cc565b925050819055506103e8858581548110610cc257610cc1612f9c565b5b90600052602060002090600702016005015482610cdf9190613275565b610ce991906132fe565b60026000878781548110610d0057610cff612f9c565b5b906000526020600020906007020160010160009054906101000a900473ffffffffffffffffffffffffffffffffffffffff1673ffffffffffffffffffffffffffffffffffffffff1673ffffffffffffffffffffffffffffffffffffffff16815260200190815260200160002060007f555344430000000000000000000000000000000000000000000000000000000081526020019081526020016000206000828254610dac9190613198565b925050819055505b60006001811115610dc857610dc76128b6565b5b886001811115610ddb57610dda6128b6565b5b14156111ad576103e8858581548110610df757610df6612f9c565b5b90600052602060002090600702016005015482610e149190613275565b610e1e91906132fe565b600260003373ffffffffffffffffffffffffffffffffffffffff1673ffffffffffffffffffffffffffffffffffffffff16815260200190815260200160002060007f55534443000000000000000000000000000000000000000000000000000000008152602001908152602001600020541015610ed0576040517f08c379a0000000000000000000000000000000000000000000000000000000008152600401610ec79061337b565b60405180910390fd5b80600260003373ffffffffffffffffffffffffffffffffffffffff1673ffffffffffffffffffffffffffffffffffffffff16815260200190815260200160002060008c81526020019081526020016000206000828254610f3091906131cc565b925050819055506103e8858581548110610f4d57610f4c612f9c565b5b90600052602060002090600702016005015482610f6a9190613275565b610f7491906132fe565b600260003373ffffffffffffffffffffffffffffffffffffffff1673ffffffffffffffffffffffffffffffffffffffff16815260200190815260200160002060007f555344430000000000000000000000000000000000000000000000000000000081526020019081526020016000206000828254610ff39190613198565b92505081905550806002600087878154811061101257611011612f9c565b5b906000526020600020906007020160010160009054906101000a900473ffffffffffffffffffffffffffffffffffffffff1673ffffffffffffffffffffffffffffffffffffffff1673ffffffffffffffffffffffffffffffffffffffff16815260200190815260200160002060008c8152602001908152602001600020600082825461109e9190613198565b925050819055506103e88585815481106110bb576110ba612f9c565b5b906000526020600020906007020160050154826110d89190613275565b6110e291906132fe565b600260008787815481106110f9576110f8612f9c565b5b906000526020600020906007020160010160009054906101000a900473ffffffffffffffffffffffffffffffffffffffff1673ffffffffffffffffffffffffffffffffffffffff1673ffffffffffffffffffffffffffffffffffffffff16815260200190815260200160002060007f5553444300000000000000000000000000000000000000000000000000000000815260200190815260200160002060008282546111a591906131cc565b925050819055505b600660008154809291906111c090612ffa565b919050555083806111d090612ffa565b94505050506108e3565b600091505b8280549050821080156112395750828281548110611200576111ff612f9c565b5b90600052602060002090600702016003015483838154811061122557611224612f9c565b5b906000526020600020906007020160040154145b156114495760008290505b600184805490506112559190613198565b8110156113a0578360018261126a91906131cc565b8154811061127b5761127a612f9c565b5b906000526020600020906007020184828154811061129c5761129b612f9c565b5b9060005260206000209060070201600082015481600001556001820160009054906101000a900473ffffffffffffffffffffffffffffffffffffffff168160010160006101000a81548173ffffffffffffffffffffffffffffffffffffffff021916908373ffffffffffffffffffffffffffffffffffffffff1602179055506001820160149054906101000a900460ff168160010160146101000a81548160ff02191690836001811115611353576113526128b6565b5b02179055506002820154816002015560038201548160030155600482015481600401556005820154816005015560068201548160060155905050808061139890612ffa565b915050611244565b50828054806113b2576113b161339b565b5b60019003818190600052602060002090600702016000808201600090556001820160006101000a81549073ffffffffffffffffffffffffffffffffffffffff02191690556001820160146101000a81549060ff02191690556002820160009055600382016000905560048201600090556005820160009055600682016000905550509055818061144190612ffa565b9250506111df565b5050505050505050565b60065481565b60006020528060005260406000206000915090508060000154908060010160009054906101000a900473ffffffffffffffffffffffffffffffffffffffff16905082565b600460009054906101000a900473ffffffffffffffffffffffffffffffffffffffff1673ffffffffffffffffffffffffffffffffffffffff163373ffffffffffffffffffffffffffffffffffffffff161461152d576040517f08c379a000000000000000000000000000000000000000000000000000000000815260040161152490613416565b60405180910390fd5b60405180604001604052808381526020018273ffffffffffffffffffffffffffffffffffffffff168152506000808481526020019081526020016000206000820151816000015560208201518160010160006101000a81548173ffffffffffffffffffffffffffffffffffffffff021916908373ffffffffffffffffffffffffffffffffffffffff16021790555090505060018290806001815401808255809150506001900390600052602060002001600090919091909150555050565b600181815481106115fb57600080fd5b906000526020600020016000915090505481565b80600073ffffffffffffffffffffffffffffffffffffffff1660008083815260200190815260200160002060010160009054906101000a900473ffffffffffffffffffffffffffffffffffffffff1673ffffffffffffffffffffffffffffffffffffffff1614156116b5576040517f08c379a00000000000000000000000000000000000000000000000000000000081526004016116ac906130a0565b60405180910390fd5b82600260003373ffffffffffffffffffffffffffffffffffffffff1673ffffffffffffffffffffffffffffffffffffffff1681526020019081526020016000206000848152602001908152602001600020541015611748576040517f08c379a000000000000000000000000000000000000000000000000000000000815260040161173f90613482565b60405180910390fd5b82600260003373ffffffffffffffffffffffffffffffffffffffff1673ffffffffffffffffffffffffffffffffffffffff168152602001908152602001600020600084815260200190815260200160002060008282546117a89190613198565b9250508190555060008083815260200190815260200160002060010160009054906101000a900473ffffffffffffffffffffffffffffffffffffffff1673ffffffffffffffffffffffffffffffffffffffff1663a9059cbb33856040518363ffffffff1660e01b815260040161181f9291906134a2565b6020604051808303816000875af115801561183e573d6000803e3d6000fd5b505050506040513d601f19601f820116820180604052508101906118629190613503565b50505050565b6060600060018054905067ffffffffffffffff81111561188b5761188a613530565b5b6040519080825280602002602001820160405280156118c457816020015b6118b161276f565b8152602001906001900390816118a95790505b50905060005b6001805490508110156119b9576040518060400160405280600080600185815481106118f9576118f8612f9c565b5b906000526020600020015481526020019081526020016000206000015481526020016000806001858154811061193257611931612f9c565b5b9060005260206000200154815260200190815260200160002060010160009054906101000a900473ffffffffffffffffffffffffffffffffffffffff1673ffffffffffffffffffffffffffffffffffffffff1681525082828151811061199b5761199a612f9c565b5b602002602001018190525080806119b190612ffa565b9150506118ca565b508091505090565b80600073ffffffffffffffffffffffffffffffffffffffff1660008083815260200190815260200160002060010160009054906101000a900473ffffffffffffffffffffffffffffffffffffffff1673ffffffffffffffffffffffffffffffffffffffff161415611a67576040517f08c379a0000000000000000000000000000000000000000000000000000000008152600401611a5e906130a0565b60405180910390fd5b60008083815260200190815260200160002060010160009054906101000a900473ffffffffffffffffffffffffffffffffffffffff1673ffffffffffffffffffffffffffffffffffffffff166323b872dd3330866040518463ffffffff1660e01b8152600401611ad99392919061355f565b6020604051808303816000875af1158015611af8573d6000803e3d6000fd5b505050506040513d601f19601f82011682018060405250810190611b1c9190613503565b5082600260003373ffffffffffffffffffffffffffffffffffffffff1673ffffffffffffffffffffffffffffffffffffffff16815260200190815260200160002060008481526020019081526020016000206000828254611b7d91906131cc565b92505081905550505050565b83600073ffffffffffffffffffffffffffffffffffffffff1660008083815260200190815260200160002060010160009054906101000a900473ffffffffffffffffffffffffffffffffffffffff1673ffffffffffffffffffffffffffffffffffffffff161415611c2f576040517f08c379a0000000000000000000000000000000000000000000000000000000008152600401611c26906130a0565b60405180910390fd5b847f5553444300000000000000000000000000000000000000000000000000000000811415611c93576040517f08c379a0000000000000000000000000000000000000000000000000000000008152600401611c8a9061310c565b60405180910390fd5b600180811115611ca657611ca56128b6565b5b836001811115611cb957611cb86128b6565b5b1415611d575784600260003373ffffffffffffffffffffffffffffffffffffffff1673ffffffffffffffffffffffffffffffffffffffff1681526020019081526020016000206000888152602001908152602001600020541015611d52576040517f08c379a0000000000000000000000000000000000000000000000000000000008152600401611d4990613178565b60405180910390fd5b611e23565b6103e88486611d669190613275565b611d7091906132fe565b600260003373ffffffffffffffffffffffffffffffffffffffff1673ffffffffffffffffffffffffffffffffffffffff16815260200190815260200160002060007f55534443000000000000000000000000000000000000000000000000000000008152602001908152602001600020541015611e22576040517f08c379a0000000000000000000000000000000000000000000000000000000008152600401611e199061337b565b60405180910390fd5b5b6000600360008881526020019081526020016000206000856001811115611e4d57611e4c6128b6565b5b815260200190815260200160002090508060405180610100016040528060055481526020013373ffffffffffffffffffffffffffffffffffffffff168152602001866001811115611ea157611ea06128b6565b5b8152602001898152602001888152602001600081526020018781526020014281525090806001815401808255809150506001900390600052602060002090600702016000909190919091506000820151816000015560208201518160010160006101000a81548173ffffffffffffffffffffffffffffffffffffffff021916908373ffffffffffffffffffffffffffffffffffffffff16021790555060408201518160010160146101000a81548160ff02191690836001811115611f6857611f676128b6565b5b0217905550606082015181600201556080820151816003015560a0820151816004015560c0820151816005015560e082015181600601555050600080828054905011611fb5576000611fc7565b60018280549050611fc69190613198565b5b90505b600081111561241b5760006001811115611fe757611fe66128b6565b5b856001811115611ffa57611ff96128b6565b5b14801561205a575081818154811061201557612014612f9c565b5b906000526020600020906007020160050154826001836120359190613198565b8154811061204657612045612f9c565b5b906000526020600020906007020160050154115b156120645761241b565b600180811115612077576120766128b6565b5b85600181111561208a576120896128b6565b5b1480156120ea57508181815481106120a5576120a4612f9c565b5b906000526020600020906007020160050154826001836120c59190613198565b815481106120d6576120d5612f9c565b5b906000526020600020906007020160050154105b156120f45761241b565b6000826001836121049190613198565b8154811061211557612114612f9c565b5b906000526020600020906007020160405180610100016040529081600082015481526020016001820160009054906101000a900473ffffffffffffffffffffffffffffffffffffffff1673ffffffffffffffffffffffffffffffffffffffff1673ffffffffffffffffffffffffffffffffffffffff1681526020016001820160149054906101000a900460ff1660018111156121b4576121b36128b6565b5b60018111156121c6576121c56128b6565b5b815260200160028201548152602001600382015481526020016004820154815260200160058201548152602001600682015481525050905082828154811061221157612210612f9c565b5b90600052602060002090600702018360018461222d9190613198565b8154811061223e5761223d612f9c565b5b9060005260206000209060070201600082015481600001556001820160009054906101000a900473ffffffffffffffffffffffffffffffffffffffff168160010160006101000a81548173ffffffffffffffffffffffffffffffffffffffff021916908373ffffffffffffffffffffffffffffffffffffffff1602179055506001820160149054906101000a900460ff168160010160146101000a81548160ff021916908360018111156122f5576122f46128b6565b5b021790555060028201548160020155600382015481600301556004820154816004015560058201548160050155600682015481600601559050508083838154811061234357612342612f9c565b5b90600052602060002090600702016000820151816000015560208201518160010160006101000a81548173ffffffffffffffffffffffffffffffffffffffff021916908373ffffffffffffffffffffffffffffffffffffffff16021790555060408201518160010160146101000a81548160ff021916908360018111156123cd576123cc6128b6565b5b0217905550606082015181600201556080820151816003015560a0820151816004015560c0820151816005015560e08201518160060155905050818061241290613596565b92505050611fca565b6005600081548092919061242e90612ffa565b91905055505050505050505050565b600460009054906101000a900473ffffffffffffffffffffffffffffffffffffffff1681565b600060036000858152602001908152602001600020600084600181111561248d5761248c6128b6565b5b815260200190815260200160002082815481106124ad576124ac612f9c565b5b906000526020600020906007020160030154141561276a57600060016003600086815260200190815260200160002060008560018111156124f1576124f06128b6565b5b81526020019081526020016000208054905061250d9190613198565b9050600360008581526020019081526020016000206000846001811115612537576125366128b6565b5b8152602001908152602001600020818154811061255757612556612f9c565b5b906000526020600020906007020160036000868152602001908152602001600020600085600181111561258d5761258c6128b6565b5b815260200190815260200160002083815481106125ad576125ac612f9c565b5b9060005260206000209060070201600082015481600001556001820160009054906101000a900473ffffffffffffffffffffffffffffffffffffffff168160010160006101000a81548173ffffffffffffffffffffffffffffffffffffffff021916908373ffffffffffffffffffffffffffffffffffffffff1602179055506001820160149054906101000a900460ff168160010160146101000a81548160ff02191690836001811115612664576126636128b6565b5b021790555060028201548160020155600382015481600301556004820154816004015560058201548160050155600682015481600601559050506003600085815260200190815260200160002060008460018111156126c6576126c56128b6565b5b81526020019081526020016000208054806126e4576126e361339b565b5b60019003818190600052602060002090600702016000808201600090556001820160006101000a81549073ffffffffffffffffffffffffffffffffffffffff02191690556001820160146101000a81549060ff02191690556002820160009055600382016000905560048201600090556005820160009055600682016000905550509055505b505050565b604051806040016040528060008019168152602001600073ffffffffffffffffffffffffffffffffffffffff1681525090565b600080fd5b6000819050919050565b6127ba816127a7565b81146127c557600080fd5b50565b6000813590506127d7816127b1565b92915050565b6000819050919050565b6127f0816127dd565b81146127fb57600080fd5b50565b60008135905061280d816127e7565b92915050565b60008060006060848603121561282c5761282b6127a2565b5b600061283a868287016127c8565b935050602061284b868287016127fe565b925050604061285c868287016127fe565b9150509250925092565b61286f816127dd565b82525050565b600073ffffffffffffffffffffffffffffffffffffffff82169050919050565b60006128a082612875565b9050919050565b6128b081612895565b82525050565b7f4e487b7100000000000000000000000000000000000000000000000000000000600052602160045260246000fd5b600281106128f6576128f56128b6565b5b50565b6000819050612907826128e5565b919050565b6000612917826128f9565b9050919050565b6129278161290c565b82525050565b612936816127a7565b82525050565b600061010082019050612952600083018b612866565b61295f602083018a6128a7565b61296c604083018961291e565b612979606083018861292d565b6129866080830187612866565b61299360a0830186612866565b6129a060c0830185612866565b6129ad60e0830184612866565b9998505050505050505050565b60006020820190506129cf6000830184612866565b92915050565b600281106129e257600080fd5b50565b6000813590506129f4816129d5565b92915050565b600080600060608486031215612a1357612a126127a2565b5b6000612a21868287016127c8565b9350506020612a32868287016129e5565b9250506040612a43868287016127fe565b9150509250925092565b60008060408385031215612a6457612a636127a2565b5b6000612a72858286016127c8565b9250506020612a83858286016129e5565b9150509250929050565b600081519050919050565b600082825260208201905092915050565b6000819050602082019050919050565b612ac2816127dd565b82525050565b612ad181612895565b82525050565b612ae08161290c565b82525050565b612aef816127a7565b82525050565b61010082016000820151612b0c6000850182612ab9565b506020820151612b1f6020850182612ac8565b506040820151612b326040850182612ad7565b506060820151612b456060850182612ae6565b506080820151612b586080850182612ab9565b5060a0820151612b6b60a0850182612ab9565b5060c0820151612b7e60c0850182612ab9565b5060e0820151612b9160e0850182612ab9565b50505050565b6000612ba38383612af5565b6101008301905092915050565b6000602082019050919050565b6000612bc882612a8d565b612bd28185612a98565b9350612bdd83612aa9565b8060005b83811015612c0e578151612bf58882612b97565b9750612c0083612bb0565b925050600181019050612be1565b5085935050505092915050565b60006020820190508181036000830152612c358184612bbd565b905092915050565b612c4681612895565b8114612c5157600080fd5b50565b600081359050612c6381612c3d565b92915050565b60008060408385031215612c8057612c7f6127a2565b5b6000612c8e85828601612c54565b9250506020612c9f858286016127c8565b9150509250929050565b600080600060608486031215612cc257612cc16127a2565b5b6000612cd0868287016127c8565b9350506020612ce1868287016127fe565b9250506040612cf2868287016129e5565b9150509250925092565b600060208284031215612d1257612d116127a2565b5b6000612d20848285016127c8565b91505092915050565b6000604082019050612d3e600083018561292d565b612d4b60208301846128a7565b9392505050565b60008060408385031215612d6957612d686127a2565b5b6000612d77858286016127c8565b9250506020612d8885828601612c54565b9150509250929050565b600060208284031215612da857612da76127a2565b5b6000612db6848285016127fe565b91505092915050565b6000602082019050612dd4600083018461292d565b92915050565b60008060408385031215612df157612df06127a2565b5b6000612dff858286016127fe565b9250506020612e10858286016127c8565b9150509250929050565b600081519050919050565b600082825260208201905092915050565b6000819050602082019050919050565b604082016000820151612e5c6000850182612ae6565b506020820151612e6f6020850182612ac8565b50505050565b6000612e818383612e46565b60408301905092915050565b6000602082019050919050565b6000612ea582612e1a565b612eaf8185612e25565b9350612eba83612e36565b8060005b83811015612eeb578151612ed28882612e75565b9750612edd83612e8d565b925050600181019050612ebe565b5085935050505092915050565b60006020820190508181036000830152612f128184612e9a565b905092915050565b60008060008060808587031215612f3457612f336127a2565b5b6000612f42878288016127c8565b9450506020612f53878288016127fe565b9350506040612f64878288016127fe565b9250506060612f75878288016129e5565b91505092959194509250565b6000602082019050612f9660008301846128a7565b92915050565b7f4e487b7100000000000000000000000000000000000000000000000000000000600052603260045260246000fd5b7f4e487b7100000000000000000000000000000000000000000000000000000000600052601160045260246000fd5b6000613005826127dd565b91507fffffffffffffffffffffffffffffffffffffffffffffffffffffffffffffffff82141561303857613037612fcb565b5b600182019050919050565b600082825260208201905092915050565b7f7468697320746f6b656e20646f6573206e6f7420657869737400000000000000600082015250565b600061308a601983613043565b915061309582613054565b602082019050919050565b600060208201905081810360008301526130b98161307d565b9050919050565b7f63616e6e6f742074726164652055534443000000000000000000000000000000600082015250565b60006130f6601183613043565b9150613101826130c0565b602082019050919050565b60006020820190508181036000830152613125816130e9565b9050919050565b7f746f6b656e2062616c616e636520746f6f206c6f770000000000000000000000600082015250565b6000613162601583613043565b915061316d8261312c565b602082019050919050565b6000602082019050818103600083015261319181613155565b9050919050565b60006131a3826127dd565b91506131ae836127dd565b9250828210156131c1576131c0612fcb565b5b828203905092915050565b60006131d7826127dd565b91506131e2836127dd565b9250827fffffffffffffffffffffffffffffffffffffffffffffffffffffffffffffffff0382111561321757613216612fcb565b5b828201905092915050565b600060a0820190506132376000830188612866565b6132446020830187612866565b6132516040830186612866565b61325e6060830185612866565b61326b6080830184612866565b9695505050505050565b6000613280826127dd565b915061328b836127dd565b9250817fffffffffffffffffffffffffffffffffffffffffffffffffffffffffffffffff04831182151516156132c4576132c3612fcb565b5b828202905092915050565b7f4e487b7100000000000000000000000000000000000000000000000000000000600052601260045260246000fd5b6000613309826127dd565b9150613314836127dd565b925082613324576133236132cf565b5b828204905092915050565b7f757364632062616c616e636520746f6f206c6f77000000000000000000000000600082015250565b6000613365601483613043565b91506133708261332f565b602082019050919050565b6000602082019050818103600083015261339481613358565b9050919050565b7f4e487b7100000000000000000000000000000000000000000000000000000000600052603160045260246000fd5b7f6f6e6c792061646d696e00000000000000000000000000000000000000000000600082015250565b6000613400600a83613043565b915061340b826133ca565b602082019050919050565b6000602082019050818103600083015261342f816133f3565b9050919050565b7f62616c616e636520746f6f206c6f770000000000000000000000000000000000600082015250565b600061346c600f83613043565b915061347782613436565b602082019050919050565b6000602082019050818103600083015261349b8161345f565b9050919050565b60006040820190506134b760008301856128a7565b6134c46020830184612866565b9392505050565b60008115159050919050565b6134e0816134cb565b81146134eb57600080fd5b50565b6000815190506134fd816134d7565b92915050565b600060208284031215613519576135186127a2565b5b6000613527848285016134ee565b91505092915050565b7f4e487b7100000000000000000000000000000000000000000000000000000000600052604160045260246000fd5b600060608201905061357460008301866128a7565b61358160208301856128a7565b61358e6040830184612866565b949350505050565b60006135a1826127dd565b915060008214156135b5576135b4612fcb565b5b60018203905091905056fea2646970667358221220e75eb4f733ae0535dc5119df17a07c5aeb08f97833d111b46b9c37d8d6268f8e64736f6c634300080a0033",
  "immutableReferences": {},
  "source": "// SPDX-License-Identifier: GPL-3.0\r\n\r\npragma solidity >=0.7.0 <0.9.0;\r\n\r\nimport '@openzeppelin/contracts/token/ERC20/IERC20.sol';\r\n\r\ncontract Dex {\r\n\r\n    enum Side {\r\n        BUY,\r\n        SELL\r\n    }\r\n\r\n    struct Token {\r\n        bytes32 ticker;\r\n        address tokenAddress;\r\n    }\r\n\r\n    struct Order {\r\n        uint id;\r\n        address trader;\r\n        Side side;\r\n        bytes32 ticker;\r\n        uint amount;\r\n        uint filled;\r\n        uint price;\r\n        uint date;\r\n    }\r\n\r\n    mapping(bytes32 => Token) public tokens;\r\n    bytes32[] public tokenList;\r\n    mapping(address => mapping(bytes32 => uint)) public traderBalances;\r\n    mapping(bytes32 => mapping(uint => Order[])) public orderBook;\r\n    address public admin;\r\n    uint public nextOrderId;\r\n    uint public nextTradeId;\r\n    bytes32 constant USDC = bytes32('USDC');\r\n\r\n    event NewTrade(uint tradeId, uint orderId, bytes32 indexed ticker, address indexed trader1, address indexed trader2, uint amount, uint price, uint date);\r\n\r\n    constructor() {\r\n        admin = msg.sender;\r\n    }\r\n\r\n    function getOrders(\r\n        bytes32 ticker,\r\n        Side side)\r\n        external \r\n        view\r\n        returns(Order[] memory) {\r\n        return orderBook[ticker][uint(side)];\r\n    }\r\n\r\n    function getTokens() \r\n        external \r\n        view \r\n        returns(Token[] memory) {\r\n        Token[] memory _tokens = new Token[](tokenList.length);\r\n        for (uint i = 0; i < tokenList.length; i++) {\r\n          _tokens[i] = Token(\r\n            tokens[tokenList[i]].ticker,\r\n            tokens[tokenList[i]].tokenAddress\r\n          );\r\n        }\r\n        return _tokens;\r\n    }\r\n\r\n    function addToken(bytes32 ticker, address tokenAddress) onlyAdmin() external {\r\n        tokens[ticker] = Token(ticker, tokenAddress);\r\n        tokenList.push(ticker);\r\n    }\r\n\r\n    function deposit(uint amount, bytes32 ticker) tokenExist(ticker) external {\r\n        IERC20(tokens[ticker].tokenAddress).transferFrom(msg.sender, address(this), amount);\r\n        traderBalances[msg.sender][ticker] += amount;\r\n    }\r\n\r\n    function withdraw(uint amount, bytes32 ticker) tokenExist(ticker) external {\r\n        require(traderBalances[msg.sender][ticker] >= amount, 'balance too low');\r\n        traderBalances[msg.sender][ticker] -= amount;\r\n        IERC20(tokens[ticker].tokenAddress).transfer(msg.sender, amount);\r\n    }\r\n\r\n    function createLimitOrder(bytes32 ticker, uint amount, uint price, Side side) tokenExist(ticker) tokenIsNotUsdc(ticker) external {\r\n        if(side == Side.SELL) {\r\n            require(traderBalances[msg.sender][ticker] >= amount, 'token balance too low');\r\n        } else {\r\n            require(traderBalances[msg.sender][USDC] >= amount * price / 1000, 'usdc balance too low');\r\n        }\r\n        Order[] storage orders = orderBook[ticker][uint(side)];\r\n        orders.push(Order(\r\n            nextOrderId,\r\n            msg.sender,\r\n            side,\r\n            ticker,\r\n            amount,\r\n            0,\r\n            price,\r\n            block.timestamp\r\n        ));\r\n\r\n        uint i = orders.length > 0 ? orders.length - 1 : 0;\r\n        while(i > 0) {\r\n            if(side == Side.BUY && orders[i - 1].price > orders[i].price) {\r\n                break;\r\n            }\r\n            if(side == Side.SELL && orders[i - 1].price < orders[i].price) {\r\n                break;\r\n            }\r\n            Order memory order = orders[i - 1];\r\n            orders[i - 1] = orders[i];\r\n            orders[i] = order;\r\n            i--;\r\n        }\r\n        nextOrderId++;\r\n    }\r\n\r\n    function createMarketOrder(bytes32 ticker, uint amount, Side side) tokenExist(ticker) tokenIsNotUsdc(ticker) external {\r\n        if(side == Side.SELL) {\r\n            require(traderBalances[msg.sender][ticker] >= amount, 'token balance too low');\r\n        }\r\n        Order[] storage orders = orderBook[ticker][uint(side == Side.BUY ? Side.SELL : Side.BUY)];\r\n        uint i;\r\n        uint remaining = amount;\r\n\r\n        while(i < orders.length && remaining > 0) {\r\n            uint available = orders[i].amount - orders[i].filled;\r\n            uint matched = (remaining > available) ? available : remaining;\r\n            remaining -= matched;\r\n            orders[i].filled += matched;\r\n            emit NewTrade(nextTradeId, orders[i].id, ticker, orders[i].trader, msg.sender, matched, orders[i].price, block.timestamp);\r\n            if(side == Side.SELL) {\r\n                traderBalances[msg.sender][ticker] -= matched;\r\n                traderBalances[msg.sender][USDC] += matched * orders[i].price / 1000;\r\n                traderBalances[orders[i].trader][ticker] += matched;\r\n                traderBalances[orders[i].trader][USDC] -= matched * orders[i].price / 1000;\r\n            }\r\n            if(side == Side.BUY) {\r\n                require(traderBalances[msg.sender][USDC] >= matched * orders[i].price / 1000, 'usdc balance too low');\r\n                traderBalances[msg.sender][ticker] += matched;\r\n                traderBalances[msg.sender][USDC] -= matched * orders[i].price / 1000;\r\n                traderBalances[orders[i].trader][ticker] -= matched;\r\n                traderBalances[orders[i].trader][USDC] += matched * orders[i].price / 1000;\r\n            }\r\n            nextTradeId++;\r\n            i++;\r\n        }\r\n\r\n        i = 0;\r\n        while(i < orders.length && orders[i].filled == orders[i].amount) {\r\n            for(uint j = i; j < orders.length - 1; j++) {\r\n                orders[j] = orders[j + 1];\r\n            }\r\n            orders.pop();\r\n            i++;\r\n        }\r\n    }\r\n\r\n    function deleteOrder(bytes32 _ticker, Side _side, uint _id) external {\r\n        Order[] storage orders = orderBook[_ticker][uint(_side)];\r\n\r\n        for (uint i = 0; i < orders.length; i++) {\r\n            if (orders[i].id == _id && orders[i].trader == msg.sender) {\r\n                orders[i].amount = 0;\r\n\r\n                deleteAmountZero(\r\n                    orders[i].ticker,\r\n                    _side,\r\n                    i\r\n                );\r\n            }\r\n        }\r\n    }\r\n\r\n    function deleteAmountZero(bytes32 _ticker, Side _side, uint _id) internal {\r\n        if (orderBook[_ticker][uint (_side)][_id].amount == 0) {\r\n            uint lastElement = orderBook[_ticker][uint (_side)].length - 1;\r\n\r\n            orderBook[_ticker][uint (_side)][_id] = orderBook[_ticker][uint (_side)][lastElement];\r\n\r\n            orderBook[_ticker][uint (_side)].pop();\r\n        }\r\n    }\r\n\r\n\r\n    modifier tokenIsNotUsdc(bytes32 ticker) {\r\n        require(ticker != USDC, 'cannot trade USDC');\r\n        _;\r\n    }\r\n\r\n    modifier tokenExist(bytes32 ticker) {\r\n        require(tokens[ticker].tokenAddress != address(0), 'this token does not exist');\r\n        _;\r\n    }\r\n\r\n    modifier onlyAdmin() {\r\n        require(msg.sender == admin, 'only admin');\r\n        _;\r\n    }\r\n}",
  "sourcePath": "F:\\01_Projects\\01_Apps\\dex\\contracts\\Dex.sol",
  "compiler": {
    "name": "solc",
    "version": "0.8.10+commit.fc410830.Emscripten.clang"
  },
  "schemaVersion": "3.4.3",
  "updatedAt": "2022-09-04T18:15:33.322Z",
  "networkType": "ethereum",
  "devdoc": {
    "kind": "dev",
    "methods": {},
    "version": 1
  },
  "userdoc": {
    "kind": "user",
    "methods": {},
    "version": 1
  }
}